:0E0000000C949A010C9400000C9400000C94D7
:10000E0000000C9400000C9400000C9400000C9462
:10001E0000000C9400000C948D040C9400000C94C1
:10002E00A6020C9400000C9400000C9400000C949A
:10003E0000000C9400000C9400000C9400000C9432
:10004E0000000C940000C7BBB3AB9BBBC7FFEFCF48
:10005E00EFEFEFEFC7FFC7BBFBF7EFDF83FFC7BBCA
:10006E00FBE7FBBBC7FFF7EFDBBB83FBFBFF83BFEE
:10007E0087FBFBFB87FFC7BBBF87BBBBC7FF83FBF2
:10008E00F7EFDFBFBFFFC7BBBB83BBBBC7FFC7BBA2
:10009E00BBC3FBBBC7FFFFFFFFFFFFFFFFFF077FDA
:1000AE007F0F7F7F7FFF8F777707777777FF8F774A
:1000BE007F8FF7778FFF077F7F0F7F7F07FF8F770A
:1000CE00F7EFDFBF07FFFFFFFFFFFFFFFFFFFFFFA2
:1000DE00FFFFFFFFFFFF8F777F8FF7778FFF77276A
:1000EE005777777777FF776F5F3F5F6F77FF0F7782
:1000FE00770F77770FFF1FBFBFBFBFBF1FFF8F7772
:10010E007F8FF7778FFF8F777707777777FFFFFFF1
:10011E00FF07FFFFFFFFC7BBB3AB9BBBC7FFC7BB51
:10012E00BB83BBBBC7FFFFFFFFFFFFFFFFFF1F5FD1
:10013E005F5F1FFFFFFFBF3FBFBF1FFFFFFF1FDF41
:10014E001F7F1FFFFFFF1FDF1FDF1FFFFFFF5F5F11
:10015E001FDFDFFFFFFF1F7F1FDF1FFFFFFF1F7F61
:10016E001F5F1FFFFFFF1FDFDFDFDFFFFFFF1F5FD1
:10017E001F5F1FFFFFFF1F5F1FDF1FFFFFFFF1F559
:10018E00F5F5F1FFFFFFFBF3FBFBF1FFFFFFF1FDC9
:10019E00F1F7F1FFFFFFF1FDF1FDF1FFFFFFF5F5C7
:1001AE00F1FDFDFFFFFFF1F7F1FDF1FFFFFFF1F7AD
:1001BE00F1F5F1FFFFFFF1FDFDFDFDFFFFFFF1F595
:1001CE00F1F5F1FFFFFFF1F5F1FDF1FFFFFFFFFF8D
:1001DE00FFFFFFFFFFFFE7C38100C3C3C3C3EFCF22
:1001EE0080000080CFEFF7F301000001F3F7C3C3E7
:1001FE00C3C30081C3E745535020464153452033C6
:10020E00004C4B53204B452D32382F3230323000BC
:10021E004241544153204241574148202020202042
:10022E000025326420202020202020202020202085
:10023E0020200042415441532054454E474148200E
:10024E002020002532642020202020202020202065
:10025E00202020004241544153204154415320203C
:10026E0020202020004B4F4D50415241544F5220E0
:10027E0020202020200054454D503A252E3266274E
:10028E004320200054454B414E20533120732F64A0
:10029E0020533420004E494C41492054454E47418D
:1002AE00482020202000505554415220504F544594
:1002BE004E53494F2020004E494C41492041544154
:1002CE005320202020202000253264202532642057
:1002DE002532642020202020200054454D503A2500
:1002EE002E326627430080C001002D4E414E00493C
:1002FE004E4600002D4E414E00005000600254004C
:10030E006000B002DC00500010033C01500060039E
:10031E008C012800B003DC0102001404F402010079
:10032E001B04F6020000F894EE27ECBBF1E0F5BFDB
:10033E00E5BF8DE0A2E0BB27ED938A95E9F780E05B
:10034E0098E0A0E6ED930197E9F7E8E0F3E08591F8
:10035E009591009761F0A591B59105901590BF010B
:10036E00F00105900D920197E1F7FB01F0CFEFE55B
:10037E00EDBFE8E0EEBFC0E6D2E00C94EB04BA931A
:10038E00AA930E941910AE81BF81EAE0F0E00E94AC
:10039E00790F8F01AE81BF81EAE0F0E00E94AF0FCE
:1003AE009F0140E050E04830E0E05E07D4F4FA01EF
:1003BE00E45FFB4F0F01F8010E94410FE05FFC4F1D
:1003CE00E40FF51FA081F9010E94410FE05AFC4F86
:1003DE00E40FF51FE081EA23D001EC934F5F5F4FEE
:1003EE00E2CF0E94201028960895BA93AA931A93EA
:1003FE000A93E0E0E093EE03E093EF03A091EE03A7
:10040E00B091EF0318970CF046C0A091EE03B09197
:10041E00EF03EFE0F0E0EA1BFB0BA1E0B0E00E947F
:10042E00380F0F01E091EE03F091EF03AA81BB812B
:10043E00AE0FBF1FEC91F0E0E00DF11D8F01C198E2
:10044E00E0E0E093F003E093F103A091F003B091AC
:10045E00F1035097D4F4E091F003A1E0B0E00E94D4
:10046E00380FE023F123309711F0C29801C0C29AE1
:10047E00C09A88E28A95F1F7C09888E28A95F1F7DA
:10048E00A0EFB3E00E94770BE0CFC19AAEEEB3E0DF
:10049E000E94770BB3CF1981088124960895BA93E1
:1004AE00AA9328970E94191000E010E0E889F989B4
:1004BE0031970E94410F0E171F07E8F520E030E03C
:1004CE002830E0E03E0744F5F901DE011696EA0F0A
:1004DE00FB1F7E2F8F2FD801E8E0F0E00E94790FEE
:1004EE000E947D0BA02D0E94280F6E2FD801E8E0F0
:1004FE00F0E00E94790F31960E947D0BA8E00E94D9
:10050E001110EA1BA02D0E94300FE62BA72FB82F3B
:10051E00EC932F5F3F4FD4CF40E050E04530E0E00A
:10052E005E0734F4DE01169660DF4F5F5F4FF6CF45
:10053E000F5F1F4FBBCF0E942010629608950E943E
:10054E008C0BE4E4E2BF0E949A0BA4E02ED23F0192
:10055E000E949A0BA5E029D24F010E949A0BA6E0A9
:10056E0024D25F010E949A0BA7E01FD26F01ECE22A
:10057E00F1E0EA15FB052CF4ECEBF2E0AE16BF064B
:10058E000CF006C0E0E0E093DA03E093DB0313C067
:10059E00ECEBF2E0EA15FB051CF4E1E0F0E007C03D
:1005AE00ECE2F1E0AE16BF0634F4E2E0F0E0E093E8
:1005BE00DA03F093DB03ECE2F1E0EC15FD052CF42D
:1005CE00ECEBF2E0CE16DF060CF006C0E0E0E093B6
:1005DE00DC03E093DD0314C0ECEBF2E0EC15FD055B
:1005EE001CF4E1E0F0E008C00E949F0BAC32E1E0A9
:1005FE00BE0734F4E2E0F0E0E093DC03F093DD03B9
:10060E000E94A40B119721F40E949F0B109709F0E2
:10061E0005C0E1E0F0E00E94A90B38C00E94A40BD7
:10062E00109721F40E949F0B129709F005C0E2E08B
:10063E00F0E00E94A90B2AC00E94A40B109721F48F
:10064E000E949F0B119709F005C0E3E0F0E00E94B5
:10065E00A90B1CC00E94A40B129721F40E949F0BA1
:10066E00109709F005C0E4E0F0E00E94A90B0EC05F
:10067E000E94A40B109721F40E949F0B109709F073
:10068E0005C0E0E0E093DE03E093DF030E94AE0BD3
:10069E00119719F4E1E0F0E014C00E94AE0B12972E
:1006AE0019F4E2E0F0E00DC00E94AE0B139719F4BE
:1006BE00E3E0F0E006C00E94AE0B149731F4E4E0E4
:1006CE00F0E0E093E003F093E103E4E6F0E08E1651
:1006DE009F062CF4E1E0F0E00E94B30B3AC0E4E692
:1006EE00F0E0E815F9052CF4E0E9F1E08E169F062E
:1006FE000CF005C0E2E0F0E00E94B30B2AC0E0E986
:10070E00F1E0E815F9052CF4ECEBF2E08E169F06FD
:10071E000CF005C0E3E0F0E00E94B30B1AC0ECEB66
:10072E00F2E0E815F9052CF4E8EEF3E08E169F06DC
:10073E000CF005C0E4E0F0E00E94B30B0AC0E8EE56
:10074E00F3E0E815F9052CF4E0E0E093E203E09322
:10075E00E3039F9906C0A091E403B091E5031197BE
:10076E0009F00FC00E94B80B31F4E0E0E093E6030D
:10077E00E093E70306C0E1E0F0E0E093E603F093D8
:10078E00E703E0E09F99E1E0F0E0E093E403F0930B
:10079E00E503E091E603F091E703309709F4B5C065
:1007AE000E94B80B09F0B1C00E94BE0B119709F060
:1007BE004BC00E94C30B1197D1F40E94C80B0E942C
:1007CE00CB0B119769F40E94D00B3A96E093E80395
:1007DE00F093E9030E94D50B14F00E94DD0B06C0C6
:1007EE000E94CB0BD29711F40E94E30B2CC00E94F7
:1007FE00C30B1297B9F40E94C80B0E94CB0B119732
:10080E0051F4A8EEB3E00E94770B0E94D50B14F0C2
:10081E000E94DD0B06C00E94CB0BD29711F40E94F2
:10082E00E30B11C00E94C30B139719F40E94DD0B4A
:10083E000AC00E94C30B149731F4E3E6F0E0E09394
:10084E00E803F093E90361C00E94BE0B129751F4C6
:10085E00D301EAE0F0E00E94790FE093EC03F0930D
:10086E00ED0353C00E94BE0B139709F04BC00E94BC
:10087E00C30B1197D1F40E94C80B0E94CB0B11979A
:10088E0069F40E94E90B3A96E093EA03F093EB03C6
:10089E000E94EE0B14F00E94F60B06C00E94CB0BCA
:1008AE00D29711F40E94E30B2CC00E94C30B129737
:1008BE00B9F40E94C80B0E94CB0B119751F4AAEE0B
:1008CE00B3E00E94770B0E94EE0B14F00E94F60B21
:1008DE0006C00E94CB0BD29711F40E94E30B11C0FD
:1008EE000E94C30B139719F40E94F60B0AC00E94C4
:1008FE00C30B149731F4E3E6F0E0E093EA03F093D0
:10090E00EB0303C00E94BE0B149741C00E948C0BD8
:10091E00ECECEDBDE0E7ECBD0E949A0BA3E045D0F8
:10092E002F010E94FC0BDF01CB01E0E0F0EC6FE742
:10093E0074E40E94B30EA0E0B0E080EA90E40E945E
:10094E00650EE093F403F093F5036093F603709352
:10095E00F703A091F403B091F5038091F603909103
:10096E00F703EAE0F7ED63E27CE30E94B30EE09357
:10097E00F803F093F9036093FA037093FB030E945C
:10098E00010C0E94A40DE093D803F093D903E991D2
:10099E00EFBFF991E991B991A991999189917991C5
:1009AE006991F990199009901895AA93E881E064DD
:1009BE00E7B988E28A95F1F7369A349BFECF349ADE
:1009CE00E4B1F5B10C94D706E0E0EABBEBBBE7E08F
:1009DE00E7BBE0E0E8BBE0E8E4BBE5BBEFEFE1BB83
:1009EE00E0E0E2BBE3E0E3BFE4E4E2BFE0E0ECBF63
:1009FE00EFBDE1E0EEBDECECEDBDE0E7ECBDE0E01F
:100A0E00E7BDE6BDEBBDEABDE9BDE8BDE2BDE5BDB6
:100A1E00E4BDE3BDE5E0E9BFE0E0E5BFE4BFEAB970
:100A2E00E0E8E8B9E0E4E7B9E4E8E6B9E0E0E0BF21
:100A3E00EDB9E6BFA0E10E94AB0678940E940A0CC5
:100A4E00E4E0F2E00E94140C0E941E0CEFE0F2E0D3
:100A5E000E94140C0E94280CA2E3B0E00E94650DC7
:100A6E000E94280CECE0F0E0FA93EA93A0EBB2E0DF
:100A7E0016DDE091E603F091E703309709F057C0D9
:100A8E000E94BE0B119789F40E940A0CEEE1F2E06F
:100A9E000E94140C0E941E0CEFE2F2E00E942F0C3A
:100AAE000E94370CA8E6B2E0A0DC0E94BE0B1297A3
:100ABE0099F40E940A0CE1E4F2E00E94140C0E94E8
:100ACE001E0CE1E5F2E0FA93EA930E943F0C0E94BD
:100ADE00370CA0E7B2E089DC0E94BE0B139799F4A5
:100AEE000E940A0CE2E6F2E00E94140C0E941E0C18
:100AFE00EFE2F2E0FA93EA930E94480C0E94370C60
:100B0E00A8E7B2E072DC0E94BE0B149779F40E9443
:100B1E000A0CE3E7F2E00E94140C0E941E0CE4E8BB
:100B2E00F2E00E944E0CA0E8B2E05FDC8AC00E94A8
:100B3E00B80B09F086C00E94BE0B119799F40E9463
:100B4E000A0CEEE1F2E00E94140C0E941E0CE2E987
:100B5E00F2E00E94140CA091E803B091E9030E9408
:100B6E00540C6EC00E94BE0B129799F40E940A0C90
:100B7E00E3EAF2E00E94140C0E941E0CE4EBF2E099
:100B8E000E94140CA091EC03B091ED030E94540C42
:100B9E0057C00E94BE0B139799F40E940A0CE5EC05
:100BAE00F2E00E94140C0E941E0CE2E9F2E00E9498
:100BBE00140CA091EA03B091EB030E94540C40C0B8
:100BCE000E94BE0B1497E9F50E940A0CE6EDF2E0C6
:100BDE000E942F0C0E943F0C0E94480C8CE00E9439
:100BEE00D50A6096ACEFB3E09ED00E941E0CE8EEE4
:100BFE00F2E00E944E0C0E94590C18F4A0EDB3E0E6
:100C0E001FC00E94590C09F008F403C00E94660C24
:100C1E0008F003C0A0ECB3E013C00E94660C09F00C
:100C2E0008F403C00E94760C08F003C0A8ECB3E0F1
:100C3E0007C00E94760C09F008F403C0A8EBB3E0DD
:100C4E00D4DB17CFFFCFAA93E881E07111F0939A0E
:100C5E0001C09398E881E07211F0949A01C09498C3
:100C6E00E881E07411F0959A01C09598E881E078DA
:100C7E0011F0969A01C0969884E18A95F1F7929AAE
:100C8E0084E18A95F1F7929884E18A95F1F788C00C
:100C9E00AA93A881D8DFE881E295E883A881D3DF03
:100CAE0088EC8A95F1F77CC0AA93E881F0E0EC5EBF
:100CBE00FB4FE081A981AE0FEBDFE981E0931804D1
:100CCE00E881E093190422960895A2E00E94830C15
:100CDE00ACE0DEDFA1E00E94830CE0E0E0931904BB
:100CEE00E09318040895AA93A881AA3031F0E091F8
:100CFE001A04A0911804AE1760F0E0E0EA93A091F8
:100D0E001904AF5FA0931904CFDFA881AA3009F4AC
:100D1E0047C0E0911804EF5FE0931804919AA88100
:100D2E00B7DF91983DC0BA93AA931A93A981BA815D
:100D3E00ED91A983BA831E2FE03019F0A12FD3DFD6
:100D4E00F5CF188123960895AA938B9A8C9A8D9A33
:100D5E008E9A8A9A899A889A929891989098E88110
:100D6E00E0931A04E058E0931604E881E054E0930F
:100D7E001704A4E1B0E00E94650D0E94890C0E9448
:100D8E00890C0E94890CA0E25EDF0E949A0BA8E2F9
:100D9E007FDFA4E07DDFA5E87BDFA6E079DF95DFCE
:100DAE00219608950E948D0CE0E0EA83EFE3EB8339
:100DBE001A930A93EB85FC85EF3FAFEFFA0739F4F0
:100DCE000E94940CA8EFB2E00E94090BA9C0EF3F5D
:100DDE00AFE7FA0739F40E94940CA9EFB2E00E9433
:100DEE00090B9EC0AC85AA2362F4E985FA856B8552
:100DFE007C850E946F0D0E94990C0E949E0CEDE264
:100E0E00EC93A885A73010F0E6E0E8871885E12F6F
:100E1E001150E03039F00E94A50C0E94AA0C0E94DD
:100E2E00B10CF5CF0E94B60C0E94150E0E94990CC3
:100E3E0010E0E0E0F0E060E87FE30E94B10C0E9479
:100E4E00B60C0E94F80E88F00E94A50C0E94BF0CF2
:100E5E000E94B10C1F5F173238F00E94940CADEF58
:100E6E00B2E00E94090B5CC0EACF103029F40E9458
:100E7E009E0CE0E3EC9329C0E12F1150E03029F1F4
:100E8E000E94A50C0E94AA0C0E94C60CDF01CB0189
:100E9E000E94600B0E94B10C0E94B60C0E94B30E11
:100EAE000E94A20D0E2F0E949E0CE02FE05DEC938F
:100EBE00E02FF0E00E94A50C0E94FC0B0E94650E34
:100ECE000E94CD0C0E94D20CD7CFE885E03021F1E4
:100EDE000E949E0CEEE2EC93E885E150E887EF5F0E
:100EEE00D9F00E94CD0C0E94BF0C0E94990CE9858E
:100EFE00FA856B857C850E94A20D0E2F0E949E0C9A
:100F0E00E02FE05DEC93E02FF0E00E94CD0C0E940C
:100F1E00FC0B0E94D20CE0CFAE81BF81E0E0EC93DF
:100F2E00198108812D960895BA93AA931A930A935C
:100F3E00AA81BB8112960E94E50F309729F1AA81F2
:100F4E00BB8114960E94E50F8F01309761F002303D
:100F5E00E0E01E0780F0F80131978F01AA81BB8176
:100F6E001496ED93FC93AA81BB8112960E94770B87
:100F7E003197AC81A083AA81BB810E94E50FFF232C
:100F8E0012F00E94770B06C0AA81BB81EFEFFFEF34
:100F9E00ED93FC9319810881259608950E948D0C7E
:100FAE00E0E8EA83EFE3EB830E941B10EE85FF85FA
:100FBE00EF3FAFEFFA0749F4E885F985FA93EA9324
:100FCE00A2E0B3E00E94090BCBC0EF3FAFE7FA07F8
:100FDE0049F4E885F985FA93EA93A3E0B3E00E9419
:100FEE00090BBEC0AB85A73010F0E6E0EB871B8582
:100FFE00E12F1150E03029F00E94D70C0E94DC0C3A
:10100E00F7CFEC85FD856E857F850E94151031F436
:10101E0030E00E94D70C0E94DC0C37C03B850E944A
:10102E00E10C09F008F410C00E94D70C0E94DC0CF1
:10103E000E94E10C40F00E94EC0C0E94AA0C0E944F
:10104E00F10C3F5FF5CF0FC00E94E10C40F40E94FF
:10105E00EC0C0E94BF0C0E94F10C3150F5CF0E9497
:10106E00D70C0E94DC0CEC85FD856E857F850E9479
:10107E00C60C0E94F10C0E94E10C38F00E94EC0CA0
:10108E000E94AA0C0E94F10C3F5F10E0EB85E11765
:10109E00D8F1AC81BD818E819F810E94AA0C0E94E5
:1010AE00C60CDF01CB010E94600B0E94DC0CEC81B0
:1010BE00FD816E817F810E94EC0C0E94B30E0E9416
:1010CE00A20D0E2F0E94F60CE02FE05DEC93E02FA8
:1010DE00FF27662777270E94DB0DAC81BD818E81AD
:1010EE009F810E94650E0E94EC0C0E9408100E94C7
:1010FE000E0E0E94F10CE12F1F5FE03039F60E94B8
:10110E00F60CEEE2EC93C2CF0E94FD0C3197AA854D
:10111E00A08330302CF43195A885B985EDE203C05B
:10112E00A885B985EBE2EC930E94FD0C0E94FD0CA4
:10113E003197BF01A32FEAE00E94610FE05DDB0152
:10114E00EC930E94FD0C3197BF01A32FEAE00E94A1
:10115E00A30FE05DDB01EC93A885B985E0E0EC938D
:10116E000E94221060960895BA93AA93EF97619702
:10117E000E94191010E0FE01E85AFF4F0190F08115
:10118E00E02DE887F987FE01EA5AFF4F0190F081C2
:10119E00E02DEE83FF83AE81BF81E0E0F0E0ED93C2
:1011AE00FC93DE01A45ABF4F0E94770B3197E49156
:1011BE002E2FE03009F4E9C1E12FE03039F4253269
:1011CE0011F411E002C00E94030DDEC1E130C1F442
:1011DE00253219F40E94030DD6C112E0E0E0ED8B2A
:1011EE0000E02D3211F401E0CFC12B3219F4EBE205
:1011FE00ED8BCAC1203219F4E0E2ED8BC5C102C0FD
:10120E00E23039F450E013E0203311F40068BCC131
:10121E0002C0E33091F4203310F02A3308F007C0F7
:10122E00AAE05A9F502DE22FE0535E0FADC140E071
:10123E002E3211F414E0A8C10FC0E43099F420331B
:10124E0010F02A3308F008C00062AAE04A9F402D31
:10125E00E22FE0534E0F98C12C3619F4026015E0C0
:10126E0093C103C0E53009F08FC1E22FE33659F484
:10127E000E940A0D0E94110D0E940A0DA481AA93CC
:10128E000E94180D80C1E53411F0E53609F403C053
:10129E00E63609F048C0FE017696EE87FF870E947B
:1012AE001E0D0E94E90F0E94250D0E942A0DAD858C
:1012BE00AA2332F0AD89AB3259F0A03281F017C0BB
:1012CE000E942C0D0E946F0D0E94250DEDE2ED8BFC
:1012DE0007FF05C0ED89EA930E94180D08C0EE8540
:1012EE00FF853196EE87FF873197AD89A08305FF85
:1012FE0046E0263651F40E942C0D0E94FE0F4A93B2
:10130E00AB89BC890E94D90609C00E942C0D0E948F
:10131E00FE0F4A932A93AC89BD8940DEFE01769674
:10132E000E94310D1EC0E33739F40E942A0D0E942F
:10133E00390D0E94310D0EC0E037C1F40E942A0D06
:10134E000E94390DEE87FF87AE85BF850E94220B66
:10135E001E2F08600F77403011F0411708F001C0C2
:10136E00142F40E0E0E0EC8B30E06DC0E43611F07D
:10137E00E93611F4046002C0E537A1F4EAE0EC8B23
:10138E0001FF08C0E0E0FAEC6AE97BE30E943E0D43
:10139E001AE022C0E0E1F7E260E070E00E943E0D4C
:1013AE0015E01AC0E83511F4086003C0E83709F0FB
:1013BE00EAC0E0E1EC8B01FF08C0E0E0F0E060E0A5
:1013CE0070E10E943E0D18E007C0E0E0F0E160E041
:1013DE0070E00E943E0D14E0403011F00F7701C016
:1013EE0041E001FF08C00E942A0D0E941E0D1496B6
:1013FE000E94E90F0FC002FF07C00E942A0D0E9433
:10140E00390D0E944E0F06C00E942A0D0E94390D02
:10141E0066277727EA87FB876C877D8702FF12C0D6
:10142E00AD85AA2342F40E942C0D0E94200F0E942B
:10143E00250DEDE2ED8BED89E03019F01F5F4F5F6A
:10144E0001C00B7F342F00FD14C0151710F4351793
:10145E0008F00FC007FF08C002FF04C00B7F2D89E4
:10146E00115001C020E301C020E20E94030D515033
:10147E00ECCF141790F4006102FF06C00E94430DDA
:10148E0009F0515011504150E0E3EA930E94180DBB
:10149E00503009F051504150ECCF312FEC89E030F3
:1014AE00B9F43030A1F003FF06C0EE85FF8525911B
:1014BE00EE87FF8705C0AE85BF852D91AE87BF87AE
:1014CE000E94030D503009F051503150EACF51C0F7
:1014DE000E94550D0E947E0F2E2F2A3030F003FFF2
:1014EE0002C0295C01C0295A01C0205D04FD21C043
:1014FE00213360F4A889B9898A899B89A130E0E0FB
:10150E00BE07E0E08E07E0E09E0709F40BC043172C
:10151E0040F4531710F000FF01C010C020E207FF87
:10152E0008C020E3006102FF04C00E94430D09F0D1
:10153E0051500E94030D503009F0515031500E940D
:10154E00550D0E94C70F0E94250DEC89A889B989F7
:10155E008A899B89FF27662777270E947E0F0E9424
:10156E003E0DE889F9896A897B890E94151009F078
:10157E00AFCF00FF08C0503031F05150E0E2EA9397
:10158E000E94180DF8CF10E00CCEAE81BF810E94E4
:10159E00E50F0E942010EF966F960895FF92F82E99
:1015AE0026970E941B100E945E0D309719F4EFEFE4
:1015BE00FFEF23C0DE0116960E94180F8D010E94C8
:1015CE005E0DEE83FF83E0E0E887E987DE011A9681
:1015DE000E94180F0E94E50FFA93EA931A930A934A
:1015EE00EBE9F7E0FA93EA93DE011A96BDDD9F016F
:1015FE00AE81BF81E0E0EC93F9010E9422102A96A1
:10160E00FF900895BA93AA93E991F991A991B9918E
:10161E00CD0105900D920020E1F7FC010895BA93DB
:10162E00AA93A991B991EE27FF276D91662311F028
:10163E003196FBCF0895BA93AA93AA27BB27E991B7
:10164E00F9910590002011F01196FBCFFD01089540
:10165E000E9403107B816A81F981E88177FB770F05
:10166E0067FD7160972F9E5781F078F0983190F456
:10167E00AA27BB27882708948795B795A7959A958B
:10168E00D1F7EA23FB23682305C0E8947727EE27DA
:10169E00FF2766276F77769508F4606877F9A9912A
:1016AE00B99189919991EA17FB076807790797FB1A
:1016BE0008950E9403100E94F40F0E942F0B0E94A7
:1016CE00F90F19F40E94EF0F09C0E6F70E94EF0F11
:1016DE00A0E0B0E080E89FE30E940E0E24960895ED
:1016EE00ED91FD913196FE93EE930895AE85BF85F3
:1016FE000E94410FEA0FFB1FE20FF31F0080F8015B
:10170E00A7E0B0E00E94BD0F08950A921A92FA92D5
:10171E006A937A938A939A93AA93BA93EA93FA93D3
:10172E00EFB7EA9308958CE291E00197F1F70895EF
:10173E00A091DC03B091DD030895A091DA03B0917E
:10174E00DB030895E093DE03F093DF030895A09189
:10175E00DE03B091DF030895E093E203F093E30319
:10176E000895A091E603B091E70311970895A09113
:10177E00E003B091E1030895A091E203B091E30379
:10178E000895A2EFB3E0ACCFA091F203B091F303B2
:10179E000895E091E803F091E9030895A091E8031C
:1017AE00B091E903A436E0E0BE070895E0E0E093CF
:1017BE00E803E093E9030895E0E0E093F203E09399
:1017CE00F3030895E091EA03F091EB030895A091DD
:1017DE00EA03B091EB03A436E0E0BE070895E0E023
:1017EE00E093EA03E093EB0308950E944E0F0E94EC
:1017FE00DB0D0895E091F803F091F9036091FA037F
:10180E007091FB030895E0E0EA93A0E00E945B066E
:10181E00ECEFF3E0FA93EA930895FA93EA9380E0FB
:10182E000E94D50A2496ACEFB3E00C949A06E0E041
:10183E00EA93A1E00E945B06ECEFF3E0FA93EA93E1
:10184E000895979AA2E3B0E00E94650D97980895C7
:10185E00FA93EA939EDF0E944E0F0E94FE0F0895A8
:10186E0084E00E94D50A2896ACEFB3E00C949A0659
:10187E00E091EC03F091ED030E944E0F0E94FE0FDB
:10188E000895A0DF0E944E0F0E94FE0F0895FA9356
:10189E00EA93B0DF0E94FE0FE3CF0E94C601ACE0D8
:1018AE00B4E0089576DFA091F803B091F90380912A
:1018BE00FA039091FB0399DF0E94F80E0895E091D0
:1018CE00EC03F091ED03A091F803B091F903809130
:1018DE00FA039091FB0389DF0E94F80E089572DFE0
:1018EE00A091F803B091F9038091FA039091FB0354
:1018FE007CDF0E94F80E08950E944F06A3E0B0E030
:10190E000C94650DA0E30E942A060DCFBA93AA93FC
:10191E002497E0E0E883E9830895EE81FF81FA934E
:10192E00EA930895E987FA876B877C870895AE81DD
:10193E00BF811196AE83BF8311970895AA81BB8193
:10194E008C819D810895EDECFCEC6CEC7DE30E94A6
:10195E00650E0895EA83FB836C837D830895EA8187
:10196E00FB816C817D81A985BA858B859C850895C7
:10197E00E0E0F0E060E271E40E94650E0895A0E000
:10198E00B0E080E09FE30E94150E0895A985BA8508
:10199E008B859C8508950E9408100E940E0EC2CF62
:1019AE00AC81BD818E819F81E3CFEC83FD836E83FD
:1019BE007F830895EC81FD816E817F81AC85BD852D
:1019CE008E859F850E94F80E0895AC85BD858E8507
:1019DE009F850895EC87FD876E877F870895A8857C
:1019EE00B9851196A887B98711970895E885F98565
:1019FE003196E887F98708952A93AF81B885E985EE
:101A0E00FA8509950895FE01E65AFF4F0190F0817F
:101A1E00E02D08953497DE01A65ABF4FED93FC9347
:101A2E000895AF81B885E985FA8509950895DE0197
:101A3E00A65ABF4F0D90BC91A02D0895EA87FB8743
:101A4E006C877D870895DFDFE5CFEA85FB856C85A2
:101A5E007D850895EE87FF87AE85BF850E94160BA4
:101A6E001E2F0895E4DF14960E94E50F0895E88B6B
:101A7E00F98B6A8B7B8B08950B7FED89EA93DE01E0
:101A8E00A95ABF4F0D90BC91A02DFE01E75AFF4FF2
:101A9E000190F081E02D099550300895E889F9897B
:101AAE006A897B89AA85BB858C859D850895DE0113
:101ABE001C960E94180F0E94E50F0895109639F09B
:101ACE0088EB9BE00197F1F7A8951197C9F7089558
:101ADE0030976040704009F070580895552342F4D5
:101AEE00503811F4E0FF04C03196691F791F6BF076
:101AFE0050E8572711F45F93CFC05F3F31F0660F68
:101B0E00000C57956795752F08955F9300200AF086
:101B1E00CFC0C8C050E8192E1522880F991F9527DF
:101B2E00550F879550E8072E0522660F771F7527EC
:101B3E00550F67950895689401C0E8945F93F2DF9E
:101B4E00703818F07F3F08F4A7C056E1571BAAF46F
:101B5E00519558300EF4593030F0EFEFFFEF6FEF34
:101B6E007FE777F91AC077275523B9F0EE0FFF1FDD
:101B7E00661F771F5A95D1F710C07727583028F077
:101B8E00EF2FF62F672F5850F9CF552331F076955A
:101B9E006795F795E7955A95D1F700200AF449D144
:101BAE005F910895689401C0E8943097604070404A
:101BBE00B1F0002426F0772312F400943AD1172EB8
:101BCE007EE1112032F07A95EE0FFF1F661F111C79
:101BDE00F9CFEF2FF62F612D5F938ADF5F91089576
:101BEE004F93AF01FD01DA01AB01BC01CA01402DDB
:101BFE00012C142E4F910895EA0FFB1F681F0895B4
:101C0E00E095F0956095EF5FFF4F6F4F08955F93EE
:101C1E0081DF903871F150E8152604C05F937ADFAA
:101C2E00903839F1703821F1572F591B2BF112F4DE
:101C3E00D7DFFACF583118F0AA27BB27882758309C
:101C4E0028F0AB2FB82F88275850F9CF552329F0FD
:101C5E008695B795A7955A95D9F7502D512572F0BF
:101C6E00CBDF38F46795F795E795739513F420C09D
:101C7E00B7DF3EDF5F910895D8F7FBCFEA1BFB0B72
:101C8E00680B51F010F40094BBDF662392F3EE0F55
:101C9E00FF1F661F7A95CBF7EE27FF27662777275C
:101CAE005F910895EFEFFFEF6FE77FEF5F9108957C
:101CBE00EFEFFFEF6FE77FE75F9108955F932ADF06
:101CCE00703851F3903841F301240894791F23F4AE
:101CDE001CF300203AF3ECCF0F921F932F933F93F8
:101CEE004F93112722279927689FA0018F9F302D90
:101CFE00410D591F6B9F300D411D591F8E9F27D0CF
:101D0E00BF9F25D06A9F23D0BE9F1DD0AF9F1BD0F3
:101D1E00AE9F110D291F391F491F591FE32FF42F95
:101D2E00652F522F4F913F912F911F910F90662348
:101D3E002AF0550FEE1FFF1F661F02C073954BF260
:101D4E00CDDE5F910895100D211D391F02C0200DAB
:101D5E00311D491F591F08955F93DCDE703821F441
:101D6E0011200AF49FCFA4CF903809F495CF012407
:101D7E000894970B1BF4D4F30020F3CF792F1F9305
:101D8E002F933F934F931124112722273327442754
:101D9E00552790E2AE17BF078607410730F0AE1BFE
:101DAE00BF0B860B410B089401C08894551F221F50
:101DBE00331F111CAA1FBB1F881F441F9A9551F772
:101DCE00F901612D4F913F912F911F91662332F0B2
:101DDE00550FEE1FFF1F661F7A9543F27FDE5F9150
:101DEE00089599239AF0772342F0971748F029F433
:101DFE00AE17BF07860720F031F0989488940895A7
:101E0E009894089408951894889408957723C2F7A7
:101E1E00971798F3A9F7EA17FB07680788F399F362
:101E2E00ECCF0024AF0DB01D0895F195E195F04073
:101E3E000895F09560957095E195FF4F6F4F7F4F28
:101E4E000895EE230E2EEA2F19F0EE0F0A94E9F7FD
:101E5E000895EE230E2EEA2F19F0E6950A94E9F76F
:101E6E000895EE230E2EFD0121F0EE0FFF1F0A94B2
:101E7E00E1F70895EE0FFF1FEE0FFF1FEE0FFF1F8E
:101E8E000895FE2FFF0FFF0B6F2F7F2F08956F2FDB
:101E9E00660F660B762F0895002498E0AA0F001C9B
:101EAE000E1A10F40E0E01C0A1609A95B9F7EA2F22
:101EBE00A02D089569D0F0DF0EF4E1950895002469
:101ECE00112490E1AA0FBB1F001C111C0E1A1F0A31
:101EDE0018F40E0E1F1E01C0A1609A9599F7FD0110
:101EEE00D00108955DD0EBDF0EF49FDF08953F9390
:101EFE004F935F93002411244427552730E2AA0FF5
:101F0E00BB1F881F991F001C111C441F551F0E1A42
:101F1E001F0A460B570B28F40E0E1F1E461F571F87
:101F2E0001C0A1603A9559F7FD01BC01D001CA016B
:101F3E005F914F913F910895E894A7FF02C0A1953C
:101F4E006894E7FDE195A8DFEA2F0EF4E195089578
:101F5E00E894B7FF04C0A095B09511966894F7FD6C
:101F6E0064DFADDFFD010EF460DF0895E894F7FF46
:101F7E0002C05BDF6894EA23FB230EF456DF08955C
:101F8E00B6DFFD01BC010895E894E7FF02C0E195BC
:101F9E006894A7FF04C0A19500F8039400FA089571
:101FAE00E894F7FF02C041DF6894B7FF06C0A09522
:101FBE00B095119600F8039400FA0895ED91FC91F6
:101FCE0011970895ED91FD916D917C911397089560
:101FDE00E881F9816A817B810895A881B9818A811E
:101FEE009B810895E883F9836A837B8308957A93AE
:101FFE006A93FA93EA9308959A938A93BA93AA935B
:10200E000895182E862F612D192E972F712D1B2EA8
:10201E00BF2FF12D1A2EAE2FE12D0895309760406F
:10202E00704008955A934A933A932A931A930A93B7
:10203E0008955D814C813B812A8119810881089523
:00000001FF
